{
  "contractName": "Consumer",
  "abi": [
    {
      "inputs": [
        {
          "internalType": "address",
          "name": "_oracle",
          "type": "address"
        }
      ],
      "stateMutability": "nonpayable",
      "type": "constructor"
    },
    {
      "inputs": [],
      "name": "oracle",
      "outputs": [
        {
          "internalType": "contract IOracle",
          "name": "",
          "type": "address"
        }
      ],
      "stateMutability": "view",
      "type": "function",
      "constant": true
    },
    {
      "inputs": [],
      "name": "useOracleData",
      "outputs": [
        {
          "internalType": "uint256",
          "name": "",
          "type": "uint256"
        }
      ],
      "stateMutability": "view",
      "type": "function",
      "constant": true
    }
  ],
  "bytecode": "0x608060405234801561001057600080fd5b506040516104033803806104038339818101604052602081101561003357600080fd5b8101908080519060200190929190505050806000806101000a81548173ffffffffffffffffffffffffffffffffffffffff021916908373ffffffffffffffffffffffffffffffffffffffff1602179055505061036f806100946000396000f3fe608060405234801561001057600080fd5b50600436106100365760003560e01c80636dfd1b801461003b5780637dc0d1d014610059575b600080fd5b61004361008d565b6040518082815260200191505060405180910390f35b610061610315565b604051808273ffffffffffffffffffffffffffffffffffffffff16815260200191505060405180910390f35b60008060405160200180807f4254432f55534400000000000000000000000000000000000000000000000000815250600701905060405160208183030381529060405280519060200120905060008060008060009054906101000a900473ffffffffffffffffffffffffffffffffffffffff1673ffffffffffffffffffffffffffffffffffffffff166354f6127f856040518263ffffffff1660e01b81526004018082815260200191505060606040518083038186803b15801561015057600080fd5b505afa158015610164573d6000803e3d6000fd5b505050506040513d606081101561017a57600080fd5b81019080805190602001909291908051906020019092919080519060200190929190505050925092509250600115158315151461021f576040517f08c379a00000000000000000000000000000000000000000000000000000000081526004018080602001828103825260128152602001807f636f756c64206e6f74206765742064617461000000000000000000000000000081525060200191505060405180910390fd5b42821015610295576040517f08c379a000000000000000000000000000000000000000000000000000000000815260040180806020018281038252600c8152602001807f6461746120746f6f206f6c64000000000000000000000000000000000000000081525060200191505060405180910390fd5b6000811161030b576040517f08c379a000000000000000000000000000000000000000000000000000000000815260040180806020018281038252600e8152602001807f20696e76616c696420707269636500000000000000000000000000000000000081525060200191505060405180910390fd5b8094505050505090565b60008054906101000a900473ffffffffffffffffffffffffffffffffffffffff168156fea26469706673582212201a5fe07165436c05f6e777312b54134ce749be33a0851a5b752f4625f332584564736f6c63430007030033",
  "immutableReferences": {},
  "source": "// SPDX-License-Identifier: MIT\n\npragma solidity ^0.7.3;\n\nimport './IOracle.sol';\n\ncontract Consumer {\n\n    IOracle public oracle;\n\n    constructor(address _oracle) {\n        oracle = IOracle(_oracle);\n    }        \n\n    /// @notice  use data from Oracle\n    function useOracleData() external view returns(uint) {\n        bytes32 _key = keccak256(abi.encodePacked('BTC/USD'));\n        (bool _result, uint _date, uint _payload) = oracle.getData(_key);\n        require(_result == true, 'could not get data');\n        require(_date >= block.timestamp, 'data too old');\n        require(_payload > 0, ' invalid price' );\n        // can do something with the price\n        return _payload;\n    }\n\n}\n",
  "sourcePath": "/Users/zed/Desktop/ZED/Zed_Blockchain/projects/oracles/contracts/Consumer.sol",
  "compiler": {
    "name": "solc",
    "version": "0.7.3+commit.9bfce1f6.Emscripten.clang"
  },
  "schemaVersion": "3.3.3",
  "updatedAt": "2021-02-28T08:02:21.640Z",
  "networkType": "ethereum",
  "devdoc": {
    "kind": "dev",
    "methods": {},
    "version": 1
  },
  "userdoc": {
    "kind": "user",
    "methods": {
      "useOracleData()": {
        "notice": "use data from Oracle"
      }
    },
    "version": 1
  }
}