{
  "contractName": "Oracle",
  "abi": [
    {
      "inputs": [
        {
          "internalType": "address",
          "name": "_admin",
          "type": "address"
        }
      ],
      "stateMutability": "nonpayable",
      "type": "constructor"
    },
    {
      "anonymous": false,
      "inputs": [
        {
          "indexed": false,
          "internalType": "address",
          "name": "_updater",
          "type": "address"
        },
        {
          "indexed": false,
          "internalType": "uint256",
          "name": "_payload",
          "type": "uint256"
        }
      ],
      "name": "UpdateData",
      "type": "event"
    },
    {
      "anonymous": false,
      "inputs": [
        {
          "indexed": false,
          "internalType": "address",
          "name": "_reporter",
          "type": "address"
        },
        {
          "indexed": false,
          "internalType": "bool",
          "name": "_isReporter",
          "type": "bool"
        }
      ],
      "name": "UpdateReporter",
      "type": "event"
    },
    {
      "inputs": [],
      "name": "admin",
      "outputs": [
        {
          "internalType": "address",
          "name": "",
          "type": "address"
        }
      ],
      "stateMutability": "view",
      "type": "function",
      "constant": true
    },
    {
      "inputs": [
        {
          "internalType": "address",
          "name": "",
          "type": "address"
        }
      ],
      "name": "reporters",
      "outputs": [
        {
          "internalType": "bool",
          "name": "",
          "type": "bool"
        }
      ],
      "stateMutability": "view",
      "type": "function",
      "constant": true
    },
    {
      "inputs": [
        {
          "internalType": "address",
          "name": "_reporter",
          "type": "address"
        },
        {
          "internalType": "bool",
          "name": "_isReporter",
          "type": "bool"
        }
      ],
      "name": "updateReporter",
      "outputs": [],
      "stateMutability": "nonpayable",
      "type": "function"
    },
    {
      "inputs": [
        {
          "internalType": "bytes32",
          "name": "_key",
          "type": "bytes32"
        },
        {
          "internalType": "uint256",
          "name": "_payload",
          "type": "uint256"
        }
      ],
      "name": "updateData",
      "outputs": [],
      "stateMutability": "nonpayable",
      "type": "function"
    },
    {
      "inputs": [
        {
          "internalType": "bytes32",
          "name": "_key",
          "type": "bytes32"
        }
      ],
      "name": "getData",
      "outputs": [
        {
          "internalType": "bool",
          "name": "_result",
          "type": "bool"
        },
        {
          "internalType": "uint256",
          "name": "_date",
          "type": "uint256"
        },
        {
          "internalType": "uint256",
          "name": "_payload",
          "type": "uint256"
        }
      ],
      "stateMutability": "view",
      "type": "function",
      "constant": true
    }
  ],
  "bytecode": "0x608060405234801561001057600080fd5b5060405161063a38038061063a8339818101604052602081101561003357600080fd5b8101908080519060200190929190505050806000806101000a81548173ffffffffffffffffffffffffffffffffffffffff021916908373ffffffffffffffffffffffffffffffffffffffff160217905550506105a6806100946000396000f3fe608060405234801561001057600080fd5b50600436106100575760003560e01c80631ec6e24f1461005c5780632cc1cd9e146100ac57806354f6127f14610106578063a8200ab714610158578063f851a44014610190575b600080fd5b6100aa6004803603604081101561007257600080fd5b81019080803573ffffffffffffffffffffffffffffffffffffffff1690602001909291908035151590602001909291905050506101c4565b005b6100ee600480360360208110156100c257600080fd5b81019080803573ffffffffffffffffffffffffffffffffffffffff169060200190929190505050610337565b60405180821515815260200191505060405180910390f35b6101326004803603602081101561011c57600080fd5b8101908080359060200190929190505050610357565b604051808415158152602001838152602001828152602001935050505060405180910390f35b61018e6004803603604081101561016e57600080fd5b8101908080359060200190929190803590602001909291905050506103c8565b005b610198610532565b604051808273ffffffffffffffffffffffffffffffffffffffff16815260200191505060405180910390f35b60008054906101000a900473ffffffffffffffffffffffffffffffffffffffff1673ffffffffffffffffffffffffffffffffffffffff163373ffffffffffffffffffffffffffffffffffffffff1614610285576040517f08c379a00000000000000000000000000000000000000000000000000000000081526004018080602001828103825260178152602001807f556e617574686f72697a6564206f6e6c792061646d696e00000000000000000081525060200191505060405180910390fd5b80600160008473ffffffffffffffffffffffffffffffffffffffff1673ffffffffffffffffffffffffffffffffffffffff16815260200190815260200160002060006101000a81548160ff0219169083151502179055507f5444b18559b947242fcfffcfc98162c681bc6779922aafbb38b1f085f83e46768282604051808373ffffffffffffffffffffffffffffffffffffffff16815260200182151581526020019250505060405180910390a15050565b60016020528060005260406000206000915054906101000a900460ff1681565b6000806000806002600086815260200190815260200160002060000154141561038a5760008060009250925092506103c1565b6001600260008681526020019081526020016000206000015460026000878152602001908152602001600020600101549250925092505b9193909250565b60011515600160003373ffffffffffffffffffffffffffffffffffffffff1673ffffffffffffffffffffffffffffffffffffffff16815260200190815260200160002060009054906101000a900460ff1615151461048e576040517f08c379a000000000000000000000000000000000000000000000000000000000815260040180806020018281038252601a8152602001807f556e617574686f72697a6564206f6e6c79207265706f7274657200000000000081525060200191505060405180910390fd5b610496610556565b6040518060400160405280428152602001838152509050806002600085815260200190815260200160002060008201518160000155602082015181600101559050507f6ccc5ae40de9f0fce822a23c2d2a417745d8eacee80272e61bae09c92eae09be3383604051808373ffffffffffffffffffffffffffffffffffffffff1681526020018281526020019250505060405180910390a1505050565b60008054906101000a900473ffffffffffffffffffffffffffffffffffffffff1681565b60405180604001604052806000815260200160008152509056fea2646970667358221220a80917b428bf3b59c71332f4ddfcf8bb8096cd58d1d7b0ebfeac955a1bd106db64736f6c63430007030033",
  "immutableReferences": {},
  "source": "// SPDX-License-Identifier: MIT\n\npragma solidity ^0.7.3;\n\ncontract Oracle {\n\n    struct Data {\n        uint date;\n        uint payload;\n    }\n\n    address public admin;\n\n    // addresses that are allowed to report the data\n    mapping(address => bool) public reporters;\n\n    // storage for received struct type Data\n    mapping(bytes32 => Data) internal data;\n\n    // when status reporter updated to true or false\n    event UpdateReporter(address _reporter, bool _isReporter);\n\n    // when data is updated\n    event UpdateData(address _updater, uint _payload);\n\n    constructor(address _admin) {\n        admin = _admin;\n    }\n\n\n    /// @notice update if an address is a reporter \n    /// @param _reporter the address to updated as true or false\n    /// @param _isReporter the bool value of true or false to update reporter status\n    function updateReporter(address _reporter, bool _isReporter) external {\n        require(msg.sender == admin, 'Unauthorized only admin');\n        reporters[_reporter] = _isReporter;\n        emit UpdateReporter(_reporter, _isReporter);\n    }\n\n    /// @notice update with new payload\n    /// @param _key key for storing and accessing data by e.g string \"price\"\n    /// @param _payload data to store or update\n    function updateData(bytes32 _key, uint _payload) external {\n        require(reporters[msg.sender] == true, 'Unauthorized only reporter');\n        Data memory _data = Data(block.timestamp, _payload);\n        data[_key] = _data;\n        emit UpdateData(msg.sender, _payload);\n    }\n\n    /// @notice function for a Consumer to get data from Oracle\n    /// @param _key key for storing and accessing data by \n    /// @return _result true if data exists and false otherwise\n    /// @return _date date the data was stored, 0 if data does not exist\n    /// @return _payload required data e.g a price 45, 0 if data does not exist\n    function getData(bytes32 _key) external view returns(bool _result, uint _date, uint _payload) {\n        //check if struct is empty\n        if(data[_key].date == 0) {\n            return(false, 0, 0);\n        } else {\n            return(true, data[_key].date, data[_key].payload);\n        }\n\n    }\n\n\n}\n\n",
  "sourcePath": "/Users/zed/Desktop/ZED/Zed_Blockchain/projects/oracles/contracts/Oracle.sol",
  "compiler": {
    "name": "solc",
    "version": "0.7.3+commit.9bfce1f6.Emscripten.clang"
  },
  "schemaVersion": "3.3.3",
  "updatedAt": "2021-02-28T08:02:21.638Z",
  "networkType": "ethereum",
  "devdoc": {
    "kind": "dev",
    "methods": {
      "getData(bytes32)": {
        "params": {
          "_key": "key for storing and accessing data by "
        },
        "returns": {
          "_date": "date the data was stored, 0 if data does not exist",
          "_payload": "required data e.g a price 45, 0 if data does not exist",
          "_result": "true if data exists and false otherwise"
        }
      },
      "updateData(bytes32,uint256)": {
        "params": {
          "_key": "key for storing and accessing data by e.g string \"price\"",
          "_payload": "data to store or update"
        }
      },
      "updateReporter(address,bool)": {
        "params": {
          "_isReporter": "the bool value of true or false to update reporter status",
          "_reporter": "the address to updated as true or false"
        }
      }
    },
    "version": 1
  },
  "userdoc": {
    "kind": "user",
    "methods": {
      "getData(bytes32)": {
        "notice": "function for a Consumer to get data from Oracle"
      },
      "updateData(bytes32,uint256)": {
        "notice": "update with new payload"
      },
      "updateReporter(address,bool)": {
        "notice": "update if an address is a reporter "
      }
    },
    "version": 1
  }
}